{
  "_format": "hh-sol-artifact-1",
  "contractName": "FaucetAnt",
  "sourceName": "contracts/faucet.sol",
  "abi": [
    {
      "stateMutability": "payable",
      "type": "fallback"
    },
    {
      "inputs": [],
      "name": "getContractBalance",
      "outputs": [
        {
          "internalType": "uint256",
          "name": "",
          "type": "uint256"
        }
      ],
      "stateMutability": "view",
      "type": "function"
    },
    {
      "inputs": [],
      "name": "getUserBalance",
      "outputs": [
        {
          "internalType": "uint256",
          "name": "",
          "type": "uint256"
        }
      ],
      "stateMutability": "view",
      "type": "function"
    },
    {
      "inputs": [
        {
          "internalType": "address payable",
          "name": "requestor",
          "type": "address"
        }
      ],
      "name": "requestTokens",
      "outputs": [],
      "stateMutability": "nonpayable",
      "type": "function"
    },
    {
      "stateMutability": "payable",
      "type": "receive"
    }
  ],
  "bytecode": "0x6080604052600080546001600160a01b03191673e078fe7a93017f8e18c1c52e79632d0b94c56c26179055670de0b6b3a764000060025534801561004257600080fd5b5061027d806100526000396000f3fe6080604052600436106100355760003560e01c8063580f39041461003e5780636f9fb98a1461005e578063b7013dc11461007f57005b3661003c57005b005b34801561004a57600080fd5b5061003c6100593660046101f0565b610093565b34801561006a57600080fd5b50475b60405190815260200160405180910390f35b34801561008b57600080fd5b50333161006d565b6001600160a01b038116600090815260016020526040902054426100ba8262015180610220565b11156101335760405162461bcd60e51b815260206004820152603b60248201527f476574206d6f7265206166746572203120686f75722e20596f7520616c72656160448201527f6479207265717565737465642066756e647320686f75722061676f000000000060648201526084015b60405180910390fd5b60025447101561019b5760405162461bcd60e51b815260206004820152602d60248201527f4e6f7420656e6f7567682066756e647320696e20746865206661756365742e2060448201526c506c6561736520646f6e61746560981b606482015260840161012a565b6002546040516001600160a01b0384169180156108fc02916000818181858888f193505050501580156101d2573d6000803e3d6000fd5b50506001600160a01b03166000908152600160205260409020429055565b60006020828403121561020257600080fd5b81356001600160a01b038116811461021957600080fd5b9392505050565b8082018082111561024157634e487b7160e01b600052601160045260246000fd5b9291505056fea26469706673582212209df40a9dc7b3d0fbc63a7d3ee678115b6886ed552e3f255ebaeff0d6c3b92c6f64736f6c63430008110033",
  "linkReferences": {},
  "deployedLinkReferences": {}
}