{
  "_format": "hh-sol-artifact-1",
  "contractName": "MyEpicGame",
  "sourceName": "contracts/MyEpicGame.sol",
  "abi": [
    {
      "inputs": [
        {
          "internalType": "string[]",
          "name": "characterNames",
          "type": "string[]"
        },
        {
          "internalType": "string[]",
          "name": "characterImageURIs",
          "type": "string[]"
        },
        {
          "internalType": "uint256[]",
          "name": "characterHp",
          "type": "uint256[]"
        },
        {
          "internalType": "uint256[]",
          "name": "characterAttackDmg",
          "type": "uint256[]"
        },
        {
          "internalType": "string",
          "name": "bossName",
          "type": "string"
        },
        {
          "internalType": "string",
          "name": "bossImageURI",
          "type": "string"
        },
        {
          "internalType": "uint256",
          "name": "bossHp",
          "type": "uint256"
        },
        {
          "internalType": "uint256",
          "name": "bossAttackDamage",
          "type": "uint256"
        }
      ],
      "stateMutability": "nonpayable",
      "type": "constructor"
    },
    {
      "anonymous": false,
      "inputs": [
        {
          "indexed": true,
          "internalType": "address",
          "name": "owner",
          "type": "address"
        },
        {
          "indexed": true,
          "internalType": "address",
          "name": "approved",
          "type": "address"
        },
        {
          "indexed": true,
          "internalType": "uint256",
          "name": "tokenId",
          "type": "uint256"
        }
      ],
      "name": "Approval",
      "type": "event"
    },
    {
      "anonymous": false,
      "inputs": [
        {
          "indexed": true,
          "internalType": "address",
          "name": "owner",
          "type": "address"
        },
        {
          "indexed": true,
          "internalType": "address",
          "name": "operator",
          "type": "address"
        },
        {
          "indexed": false,
          "internalType": "bool",
          "name": "approved",
          "type": "bool"
        }
      ],
      "name": "ApprovalForAll",
      "type": "event"
    },
    {
      "anonymous": false,
      "inputs": [
        {
          "indexed": false,
          "internalType": "uint256",
          "name": "newBossHp",
          "type": "uint256"
        },
        {
          "indexed": false,
          "internalType": "uint256",
          "name": "newPlayerHp",
          "type": "uint256"
        }
      ],
      "name": "AttackComplete",
      "type": "event"
    },
    {
      "anonymous": false,
      "inputs": [
        {
          "indexed": false,
          "internalType": "address",
          "name": "sender",
          "type": "address"
        },
        {
          "indexed": false,
          "internalType": "uint256",
          "name": "tokenId",
          "type": "uint256"
        },
        {
          "indexed": false,
          "internalType": "uint256",
          "name": "characterIndex",
          "type": "uint256"
        }
      ],
      "name": "CharacterNFTMinted",
      "type": "event"
    },
    {
      "anonymous": false,
      "inputs": [
        {
          "indexed": false,
          "internalType": "address",
          "name": "loser",
          "type": "address"
        },
        {
          "indexed": false,
          "internalType": "uint256",
          "name": "tokenId",
          "type": "uint256"
        },
        {
          "indexed": false,
          "internalType": "string",
          "name": "charName",
          "type": "string"
        }
      ],
      "name": "Losers",
      "type": "event"
    },
    {
      "anonymous": false,
      "inputs": [
        {
          "indexed": true,
          "internalType": "address",
          "name": "from",
          "type": "address"
        },
        {
          "indexed": true,
          "internalType": "address",
          "name": "to",
          "type": "address"
        },
        {
          "indexed": true,
          "internalType": "uint256",
          "name": "tokenId",
          "type": "uint256"
        }
      ],
      "name": "Transfer",
      "type": "event"
    },
    {
      "anonymous": false,
      "inputs": [
        {
          "indexed": false,
          "internalType": "address",
          "name": "winner",
          "type": "address"
        },
        {
          "indexed": false,
          "internalType": "uint256",
          "name": "tokenId",
          "type": "uint256"
        },
        {
          "indexed": false,
          "internalType": "string",
          "name": "charName",
          "type": "string"
        }
      ],
      "name": "Winners",
      "type": "event"
    },
    {
      "inputs": [
        {
          "internalType": "address",
          "name": "to",
          "type": "address"
        },
        {
          "internalType": "uint256",
          "name": "tokenId",
          "type": "uint256"
        }
      ],
      "name": "approve",
      "outputs": [],
      "stateMutability": "nonpayable",
      "type": "function"
    },
    {
      "inputs": [],
      "name": "attackBoss",
      "outputs": [],
      "stateMutability": "nonpayable",
      "type": "function"
    },
    {
      "inputs": [
        {
          "internalType": "address",
          "name": "owner",
          "type": "address"
        }
      ],
      "name": "balanceOf",
      "outputs": [
        {
          "internalType": "uint256",
          "name": "",
          "type": "uint256"
        }
      ],
      "stateMutability": "view",
      "type": "function"
    },
    {
      "inputs": [],
      "name": "bigBoss",
      "outputs": [
        {
          "internalType": "string",
          "name": "name",
          "type": "string"
        },
        {
          "internalType": "string",
          "name": "imageURI",
          "type": "string"
        },
        {
          "internalType": "uint256",
          "name": "hp",
          "type": "uint256"
        },
        {
          "internalType": "uint256",
          "name": "maxHp",
          "type": "uint256"
        },
        {
          "internalType": "uint256",
          "name": "attackDamage",
          "type": "uint256"
        }
      ],
      "stateMutability": "view",
      "type": "function"
    },
    {
      "inputs": [],
      "name": "checkIfUserHasNFT",
      "outputs": [
        {
          "components": [
            {
              "internalType": "uint256",
              "name": "characterIndex",
              "type": "uint256"
            },
            {
              "internalType": "string",
              "name": "name",
              "type": "string"
            },
            {
              "internalType": "string",
              "name": "imageURI",
              "type": "string"
            },
            {
              "internalType": "uint256",
              "name": "hp",
              "type": "uint256"
            },
            {
              "internalType": "uint256",
              "name": "maxHp",
              "type": "uint256"
            },
            {
              "internalType": "uint256",
              "name": "attackDamage",
              "type": "uint256"
            }
          ],
          "internalType": "struct MyEpicGame.CharacterAttributes",
          "name": "",
          "type": "tuple"
        }
      ],
      "stateMutability": "view",
      "type": "function"
    },
    {
      "inputs": [],
      "name": "getAllDefaultCharacters",
      "outputs": [
        {
          "components": [
            {
              "internalType": "uint256",
              "name": "characterIndex",
              "type": "uint256"
            },
            {
              "internalType": "string",
              "name": "name",
              "type": "string"
            },
            {
              "internalType": "string",
              "name": "imageURI",
              "type": "string"
            },
            {
              "internalType": "uint256",
              "name": "hp",
              "type": "uint256"
            },
            {
              "internalType": "uint256",
              "name": "maxHp",
              "type": "uint256"
            },
            {
              "internalType": "uint256",
              "name": "attackDamage",
              "type": "uint256"
            }
          ],
          "internalType": "struct MyEpicGame.CharacterAttributes[]",
          "name": "",
          "type": "tuple[]"
        }
      ],
      "stateMutability": "view",
      "type": "function"
    },
    {
      "inputs": [
        {
          "internalType": "uint256",
          "name": "tokenId",
          "type": "uint256"
        }
      ],
      "name": "getApproved",
      "outputs": [
        {
          "internalType": "address",
          "name": "",
          "type": "address"
        }
      ],
      "stateMutability": "view",
      "type": "function"
    },
    {
      "inputs": [],
      "name": "getBigBoss",
      "outputs": [
        {
          "components": [
            {
              "internalType": "string",
              "name": "name",
              "type": "string"
            },
            {
              "internalType": "string",
              "name": "imageURI",
              "type": "string"
            },
            {
              "internalType": "uint256",
              "name": "hp",
              "type": "uint256"
            },
            {
              "internalType": "uint256",
              "name": "maxHp",
              "type": "uint256"
            },
            {
              "internalType": "uint256",
              "name": "attackDamage",
              "type": "uint256"
            }
          ],
          "internalType": "struct MyEpicGame.BigBoss",
          "name": "",
          "type": "tuple"
        }
      ],
      "stateMutability": "view",
      "type": "function"
    },
    {
      "inputs": [
        {
          "internalType": "address",
          "name": "owner",
          "type": "address"
        },
        {
          "internalType": "address",
          "name": "operator",
          "type": "address"
        }
      ],
      "name": "isApprovedForAll",
      "outputs": [
        {
          "internalType": "bool",
          "name": "",
          "type": "bool"
        }
      ],
      "stateMutability": "view",
      "type": "function"
    },
    {
      "inputs": [
        {
          "internalType": "uint256",
          "name": "_characterIndex",
          "type": "uint256"
        }
      ],
      "name": "mintCharacterNFT",
      "outputs": [],
      "stateMutability": "payable",
      "type": "function"
    },
    {
      "inputs": [],
      "name": "name",
      "outputs": [
        {
          "internalType": "string",
          "name": "",
          "type": "string"
        }
      ],
      "stateMutability": "view",
      "type": "function"
    },
    {
      "inputs": [
        {
          "internalType": "uint256",
          "name": "",
          "type": "uint256"
        }
      ],
      "name": "nftHolderAttributes",
      "outputs": [
        {
          "internalType": "uint256",
          "name": "characterIndex",
          "type": "uint256"
        },
        {
          "internalType": "string",
          "name": "name",
          "type": "string"
        },
        {
          "internalType": "string",
          "name": "imageURI",
          "type": "string"
        },
        {
          "internalType": "uint256",
          "name": "hp",
          "type": "uint256"
        },
        {
          "internalType": "uint256",
          "name": "maxHp",
          "type": "uint256"
        },
        {
          "internalType": "uint256",
          "name": "attackDamage",
          "type": "uint256"
        }
      ],
      "stateMutability": "view",
      "type": "function"
    },
    {
      "inputs": [
        {
          "internalType": "address",
          "name": "",
          "type": "address"
        }
      ],
      "name": "nftHolders",
      "outputs": [
        {
          "internalType": "uint256",
          "name": "",
          "type": "uint256"
        }
      ],
      "stateMutability": "view",
      "type": "function"
    },
    {
      "inputs": [],
      "name": "owner",
      "outputs": [
        {
          "internalType": "address payable",
          "name": "",
          "type": "address"
        }
      ],
      "stateMutability": "view",
      "type": "function"
    },
    {
      "inputs": [
        {
          "internalType": "uint256",
          "name": "tokenId",
          "type": "uint256"
        }
      ],
      "name": "ownerOf",
      "outputs": [
        {
          "internalType": "address",
          "name": "",
          "type": "address"
        }
      ],
      "stateMutability": "view",
      "type": "function"
    },
    {
      "inputs": [
        {
          "internalType": "address",
          "name": "from",
          "type": "address"
        },
        {
          "internalType": "address",
          "name": "to",
          "type": "address"
        },
        {
          "internalType": "uint256",
          "name": "tokenId",
          "type": "uint256"
        }
      ],
      "name": "safeTransferFrom",
      "outputs": [],
      "stateMutability": "nonpayable",
      "type": "function"
    },
    {
      "inputs": [
        {
          "internalType": "address",
          "name": "from",
          "type": "address"
        },
        {
          "internalType": "address",
          "name": "to",
          "type": "address"
        },
        {
          "internalType": "uint256",
          "name": "tokenId",
          "type": "uint256"
        },
        {
          "internalType": "bytes",
          "name": "_data",
          "type": "bytes"
        }
      ],
      "name": "safeTransferFrom",
      "outputs": [],
      "stateMutability": "nonpayable",
      "type": "function"
    },
    {
      "inputs": [
        {
          "internalType": "address",
          "name": "operator",
          "type": "address"
        },
        {
          "internalType": "bool",
          "name": "approved",
          "type": "bool"
        }
      ],
      "name": "setApprovalForAll",
      "outputs": [],
      "stateMutability": "nonpayable",
      "type": "function"
    },
    {
      "inputs": [
        {
          "internalType": "bytes4",
          "name": "interfaceId",
          "type": "bytes4"
        }
      ],
      "name": "supportsInterface",
      "outputs": [
        {
          "internalType": "bool",
          "name": "",
          "type": "bool"
        }
      ],
      "stateMutability": "view",
      "type": "function"
    },
    {
      "inputs": [],
      "name": "symbol",
      "outputs": [
        {
          "internalType": "string",
          "name": "",
          "type": "string"
        }
      ],
      "stateMutability": "view",
      "type": "function"
    },
    {
      "inputs": [
        {
          "internalType": "uint256",
          "name": "_tokenId",
          "type": "uint256"
        }
      ],
      "name": "tokenURI",
      "outputs": [
        {
          "internalType": "string",
          "name": "",
          "type": "string"
        }
      ],
      "stateMutability": "view",
      "type": "function"
    },
    {
      "inputs": [
        {
          "internalType": "address",
          "name": "from",
          "type": "address"
        },
        {
          "internalType": "address",
          "name": "to",
          "type": "address"
        },
        {
          "internalType": "uint256",
          "name": "tokenId",
          "type": "uint256"
        }
      ],
      "name": "transferFrom",
      "outputs": [],
      "stateMutability": "nonpayable",
      "type": "function"
    },
    {
      "inputs": [],
      "name": "withdraw",
      "outputs": [],
      "stateMutability": "nonpayable",
      "type": "function"
    }
  ],
  "bytecode": "0x60806040523480156200001157600080fd5b5060405162003f8938038062003f8983398101604081905262000034916200090a565b604080518082018252600b81526a1cdbdb191a595c8b585b9d60aa1b60208083019182528351808501909452600384526210539560ea1b908401528151919291620000829160009162000656565b5080516200009890600190602084019062000656565b5050600680546001600160a01b03191633179055506040805160a0810182528581526020808201869052918101849052606081018490526080810183905285519091600a91620000ee9183919089019062000656565b50602082810151805162000109926001850192019062000656565b50604082015181600201556060820151816003015560808201518160040155905050620002866040518060600160405280602a815260200162003f5f602a9139600a8054620001589062000a25565b80601f0160208091040260200160405190810160405280929190818152602001828054620001869062000a25565b8015620001d75780601f10620001ab57610100808354040283529160200191620001d7565b820191906000526020600020905b815481529060010190602001808311620001b957829003601f168201915b5050600c54600b80549194509250620001f1915062000a25565b80601f01602080910402602001604051908101604052809291908181526020018280546200021f9062000a25565b8015620002705780601f10620002445761010080835404028352916020019162000270565b820191906000526020600020905b8154815290600101906020018083116200025257829003601f168201915b5050505050620005d560201b62001d551760201c565b60005b8851811015620005af5760086040518060c001604052808381526020018b8481518110620002bb57620002bb62000a62565b602002602001015181526020018a8481518110620002dd57620002dd62000a62565b60200260200101518152602001898481518110620002ff57620002ff62000a62565b6020026020010151815260200189848151811062000321576200032162000a62565b6020026020010151815260200188848151811062000343576200034362000a62565b6020908102919091018101519091528254600181810185556000948552938290208351600690920201908155828201518051939491936200038d9392850192919091019062000656565b5060408201518051620003ab91600284019160209091019062000656565b50606082015181600301556080820151816004015560a082015181600501555050600060088281548110620003e457620003e462000a62565b90600052602060002090600602016040518060c001604052908160008201548152602001600182018054620004199062000a25565b80601f0160208091040260200160405190810160405280929190818152602001828054620004479062000a25565b8015620004985780601f106200046c5761010080835404028352916020019162000498565b820191906000526020600020905b8154815290600101906020018083116200047a57829003601f168201915b50505050508152602001600282018054620004b39062000a25565b80601f0160208091040260200160405190810160405280929190818152602001828054620004e19062000a25565b8015620005325780601f10620005065761010080835404028352916020019162000532565b820191906000526020600020905b8154815290600101906020018083116200051457829003601f168201915b50505050508152602001600382015481526020016004820154815260200160058201548152505090506200059960405180606001604052806025815260200162003f3a60259139826020015183606001518460400151620005d560201b62001d551760201c565b50620005a760018262000a78565b905062000289565b50620005c760076200062c60201b62001d9e1760201c565b505050505050505062000b1d565b6200062684848484604051602401620005f2949392919062000acd565b60408051601f198184030181529190526020810180516001600160e01b03908116638d142cdd60e01b179091526200063516565b50505050565b80546001019055565b80516a636f6e736f6c652e6c6f67602083016000808483855afa5050505050565b828054620006649062000a25565b90600052602060002090601f016020900481019282620006885760008555620006d3565b82601f10620006a357805160ff1916838001178555620006d3565b82800160010185558215620006d3579182015b82811115620006d3578251825591602001919060010190620006b6565b50620006e1929150620006e5565b5090565b5b80821115620006e15760008155600101620006e6565b634e487b7160e01b600052604160045260246000fd5b604051601f8201601f191681016001600160401b03811182821017156200073d576200073d620006fc565b604052919050565b60006001600160401b03821115620007615762000761620006fc565b5060051b60200190565b60005b83811015620007885781810151838201526020016200076e565b83811115620006265750506000910152565b600082601f830112620007ac57600080fd5b81516001600160401b03811115620007c857620007c8620006fc565b620007dd601f8201601f191660200162000712565b818152846020838601011115620007f357600080fd5b620008068260208301602087016200076b565b949350505050565b600082601f8301126200082057600080fd5b8151602062000839620008338362000745565b62000712565b82815260059290921b840181019181810190868411156200085957600080fd5b8286015b848110156200089d5780516001600160401b038111156200087e5760008081fd5b6200088e8986838b01016200079a565b8452509183019183016200085d565b509695505050505050565b600082601f830112620008ba57600080fd5b81516020620008cd620008338362000745565b82815260059290921b84018101918181019086841115620008ed57600080fd5b8286015b848110156200089d5780518352918301918301620008f1565b600080600080600080600080610100898b0312156200092857600080fd5b88516001600160401b03808211156200094057600080fd5b6200094e8c838d016200080e565b995060208b01519150808211156200096557600080fd5b620009738c838d016200080e565b985060408b01519150808211156200098a57600080fd5b620009988c838d01620008a8565b975060608b0151915080821115620009af57600080fd5b620009bd8c838d01620008a8565b965060808b0151915080821115620009d457600080fd5b620009e28c838d016200079a565b955060a08b0151915080821115620009f957600080fd5b5062000a088b828c016200079a565b60c08b015160e0909b0151999c989b509699959894979350505050565b600181811c9082168062000a3a57607f821691505b6020821081141562000a5c57634e487b7160e01b600052602260045260246000fd5b50919050565b634e487b7160e01b600052603260045260246000fd5b6000821982111562000a9a57634e487b7160e01b600052601160045260246000fd5b500190565b6000815180845262000ab98160208601602086016200076b565b601f01601f19169290920160200192915050565b60808152600062000ae2608083018762000a9f565b828103602084015262000af6818762000a9f565b9050846040840152828103606084015262000b12818562000a9f565b979650505050505050565b61340d8062000b2d6000396000f3fe6080604052600436106101405760003560e01c80638da5cb5b116100b6578063b953084e1161006f578063b953084e146103b5578063c87b56dd146103d7578063c8cf27f4146103f7578063d4f24c5b14610419578063e985e9c51461042e578063f8b81ef71461047757600080fd5b80638da5cb5b146102e857806395d89b411461030857806398da4c951461031d578063a22cb4651461034f578063a9c326791461036f578063b88d4fde1461039557600080fd5b806323b872dd1161010857806323b872dd146102185780633ccfd60b1461023857806342842e0e1461024d5780636352211e1461026d57806370a082311461028d5780637df124a1146102bb57600080fd5b806301ffc9a7146101455780630665f9611461017a57806306fdde031461019c578063081812fc146101be578063095ea7b3146101f6575b600080fd5b34801561015157600080fd5b5061016561016036600461288a565b61048a565b60405190151581526020015b60405180910390f35b34801561018657600080fd5b5061018f6104dc565b6040516101719190612906565b3480156101a857600080fd5b506101b1610662565b604051610171919061296a565b3480156101ca57600080fd5b506101de6101d936600461297d565b6106f4565b6040516001600160a01b039091168152602001610171565b34801561020257600080fd5b506102166102113660046129b2565b61078e565b005b34801561022457600080fd5b506102166102333660046129dc565b6108a4565b34801561024457600080fd5b506102166108d5565b34801561025957600080fd5b506102166102683660046129dc565b6109bd565b34801561027957600080fd5b506101de61028836600461297d565b6109d8565b34801561029957600080fd5b506102ad6102a8366004612a18565b610a4f565b604051908152602001610171565b3480156102c757600080fd5b506102ad6102d6366004612a18565b600f6020526000908152604090205481565b3480156102f457600080fd5b506006546101de906001600160a01b031681565b34801561031457600080fd5b506101b1610ad6565b34801561032957600080fd5b5061033d61033836600461297d565b610ae5565b60405161017196959493929190612a33565b34801561035b57600080fd5b5061021661036a366004612a7d565b610c2a565b34801561037b57600080fd5b50610384610c35565b604051610171959493929190612ab9565b3480156103a157600080fd5b506102166103b0366004612b12565b610d67565b3480156103c157600080fd5b506103ca610d9f565b6040516101719190612c51565b3480156103e357600080fd5b506101b16103f236600461297d565b610f4a565b34801561040357600080fd5b5061040c61115b565b6040516101719190612cb3565b34801561042557600080fd5b50610216611357565b34801561043a57600080fd5b50610165610449366004612cc6565b6001600160a01b03918216600090815260056020908152604080832093909416825291909152205460ff1690565b61021661048536600461297d565b611a00565b60006001600160e01b031982166380ac58cd60e01b14806104bb57506001600160e01b03198216635b5e139f60e01b145b806104d657506301ffc9a760e01b6001600160e01b03198316145b92915050565b61050e6040518060a0016040528060608152602001606081526020016000815260200160008152602001600081525090565b600a6040518060a001604052908160008201805461052b90612cf9565b80601f016020809104026020016040519081016040528092919081815260200182805461055790612cf9565b80156105a45780601f10610579576101008083540402835291602001916105a4565b820191906000526020600020905b81548152906001019060200180831161058757829003601f168201915b505050505081526020016001820180546105bd90612cf9565b80601f01602080910402602001604051908101604052809291908181526020018280546105e990612cf9565b80156106365780601f1061060b57610100808354040283529160200191610636565b820191906000526020600020905b81548152906001019060200180831161061957829003601f168201915b505050505081526020016002820154815260200160038201548152602001600482015481525050905090565b60606000805461067190612cf9565b80601f016020809104026020016040519081016040528092919081815260200182805461069d90612cf9565b80156106ea5780601f106106bf576101008083540402835291602001916106ea565b820191906000526020600020905b8154815290600101906020018083116106cd57829003601f168201915b5050505050905090565b6000818152600260205260408120546001600160a01b03166107725760405162461bcd60e51b815260206004820152602c60248201527f4552433732313a20617070726f76656420717565727920666f72206e6f6e657860448201526b34b9ba32b73a103a37b5b2b760a11b60648201526084015b60405180910390fd5b506000908152600460205260409020546001600160a01b031690565b6000610799826109d8565b9050806001600160a01b0316836001600160a01b031614156108075760405162461bcd60e51b815260206004820152602160248201527f4552433732313a20617070726f76616c20746f2063757272656e74206f776e656044820152603960f91b6064820152608401610769565b336001600160a01b038216148061082357506108238133610449565b6108955760405162461bcd60e51b815260206004820152603860248201527f4552433732313a20617070726f76652063616c6c6572206973206e6f74206f7760448201527f6e6572206e6f7220617070726f76656420666f7220616c6c00000000000000006064820152608401610769565b61089f8383611da7565b505050565b6108ae3382611e15565b6108ca5760405162461bcd60e51b815260040161076990612d34565b61089f838383611f0c565b6006546001600160a01b0316331461091b5760405162461bcd60e51b81526020600482015260096024820152682737ba1037bbb732b960b91b6044820152606401610769565b60065460405147916000916001600160a01b039091169083908381818185875af1925050503d806000811461096c576040519150601f19603f3d011682016040523d82523d6000602084013e610971565b606091505b50509050806109b95760405162461bcd60e51b81526020600482015260146024820152732330b4b632b2103a379039b2b7321022ba3432b960611b6044820152606401610769565b5050565b61089f83838360405180602001604052806000815250610d67565b6000818152600260205260408120546001600160a01b0316806104d65760405162461bcd60e51b815260206004820152602960248201527f4552433732313a206f776e657220717565727920666f72206e6f6e657869737460448201526832b73a103a37b5b2b760b91b6064820152608401610769565b60006001600160a01b038216610aba5760405162461bcd60e51b815260206004820152602a60248201527f4552433732313a2062616c616e636520717565727920666f7220746865207a65604482015269726f206164647265737360b01b6064820152608401610769565b506001600160a01b031660009081526003602052604090205490565b60606001805461067190612cf9565b60096020526000908152604090208054600182018054919291610b0790612cf9565b80601f0160208091040260200160405190810160405280929190818152602001828054610b3390612cf9565b8015610b805780601f10610b5557610100808354040283529160200191610b80565b820191906000526020600020905b815481529060010190602001808311610b6357829003601f168201915b505050505090806002018054610b9590612cf9565b80601f0160208091040260200160405190810160405280929190818152602001828054610bc190612cf9565b8015610c0e5780601f10610be357610100808354040283529160200191610c0e565b820191906000526020600020905b815481529060010190602001808311610bf157829003601f168201915b5050505050908060030154908060040154908060050154905086565b6109b93383836120a8565b600a80548190610c4490612cf9565b80601f0160208091040260200160405190810160405280929190818152602001828054610c7090612cf9565b8015610cbd5780601f10610c9257610100808354040283529160200191610cbd565b820191906000526020600020905b815481529060010190602001808311610ca057829003601f168201915b505050505090806001018054610cd290612cf9565b80601f0160208091040260200160405190810160405280929190818152602001828054610cfe90612cf9565b8015610d4b5780601f10610d2057610100808354040283529160200191610d4b565b820191906000526020600020905b815481529060010190602001808311610d2e57829003601f168201915b5050505050908060020154908060030154908060040154905085565b610d713383611e15565b610d8d5760405162461bcd60e51b815260040161076990612d34565b610d9984848484612177565b50505050565b60606008805480602002602001604051908101604052809291908181526020016000905b82821015610f4157838290600052602060002090600602016040518060c001604052908160008201548152602001600182018054610e0090612cf9565b80601f0160208091040260200160405190810160405280929190818152602001828054610e2c90612cf9565b8015610e795780601f10610e4e57610100808354040283529160200191610e79565b820191906000526020600020905b815481529060010190602001808311610e5c57829003601f168201915b50505050508152602001600282018054610e9290612cf9565b80601f0160208091040260200160405190810160405280929190818152602001828054610ebe90612cf9565b8015610f0b5780601f10610ee057610100808354040283529160200191610f0b565b820191906000526020600020905b815481529060010190602001808311610eee57829003601f168201915b50505050508152602001600382015481526020016004820154815260200160058201548152505081526020019060010190610dc3565b50505050905090565b6000818152600960209081526040808320815160c08101909252805482526001810180546060959484019190610f7f90612cf9565b80601f0160208091040260200160405190810160405280929190818152602001828054610fab90612cf9565b8015610ff85780601f10610fcd57610100808354040283529160200191610ff8565b820191906000526020600020905b815481529060010190602001808311610fdb57829003601f168201915b5050505050815260200160028201805461101190612cf9565b80601f016020809104026020016040519081016040528092919081815260200182805461103d90612cf9565b801561108a5780601f1061105f5761010080835404028352916020019161108a565b820191906000526020600020905b81548152906001019060200180831161106d57829003601f168201915b505050505081526020016003820154815260200160048201548152602001600582015481525050905060006110c282606001516121aa565b905060006110d383608001516121aa565b905060006110e48460a001516121aa565b9050600061112a85602001516110f9896121aa565b876040015187878760405160200161111696959493929190612da1565b6040516020818303038152906040526122a8565b905060008160405160200161113f9190612f5d565b60408051601f1981840301815291905298975050505050505050565b6111946040518060c001604052806000815260200160608152602001606081526020016000815260200160008152602001600081525090565b336000908152600f6020526040902054801561131a57600960008281526020019081526020016000206040518060c0016040529081600082015481526020016001820180546111e290612cf9565b80601f016020809104026020016040519081016040528092919081815260200182805461120e90612cf9565b801561125b5780601f106112305761010080835404028352916020019161125b565b820191906000526020600020905b81548152906001019060200180831161123e57829003601f168201915b5050505050815260200160028201805461127490612cf9565b80601f01602080910402602001604051908101604052809291908181526020018280546112a090612cf9565b80156112ed5780601f106112c2576101008083540402835291602001916112ed565b820191906000526020600020905b8154815290600101906020018083116112d057829003601f168201915b50505050508152602001600382015481526020016004820154815260200160058201548152505091505090565b6104d66040518060c001604052806000815260200160608152602001606081526020016000815260200160008152602001600081525090565b5090565b336000908152600f60209081526040808320548084526009835292819020815160608101909252603c808352909261142e92919061339c908301398260010180546113a190612cf9565b80601f01602080910402602001604051908101604052809291908181526020018280546113cd90612cf9565b801561141a5780601f106113ef5761010080835404028352916020019161141a565b820191906000526020600020905b8154815290600101906020018083116113fd57829003601f168201915b50505050508360030154846005015461240e565b6115066040518060400160405280601b81526020017f426f73732025732068617320257320485020616e642025732041440000000000815250600a600001805461147790612cf9565b80601f01602080910402602001604051908101604052809291908181526020018280546114a390612cf9565b80156114f05780601f106114c5576101008083540402835291602001916114f0565b820191906000526020600020905b8154815290600101906020018083116114d357829003601f168201915b5050505050600a60020154600a6004015461240e565b60008160030154116115805760405162461bcd60e51b815260206004820152603860248201527f4572726f723a2047616d65204f7665722c20636861726163746572206d75737460448201527f206861766520485020746f2061747461636b20626f73732e00000000000000006064820152608401610769565b600c546115e05760405162461bcd60e51b815260206004820152602860248201527f4572726f723a20626f7373206d757374206861766520485020746f206174746160448201526731b5903137b9b99760c11b6064820152608401610769565b6005810154600c5410156117cf576000600c5560408051808201909152601b81527f426f73732025732068617320257320485020616e6420257320414400000000006020820152600a805461163a92919061147790612cf9565b6117056040518060400160405280601f81526020017f536f6c6469657220416e742025732068617320776f6e207468652067616d650081525082600101805461168290612cf9565b80601f01602080910402602001604051908101604052809291908181526020018280546116ae90612cf9565b80156116fb5780601f106116d0576101008083540402835291602001916116fb565b820191906000526020600020905b8154815290600101906020018083116116de57829003601f168201915b5050505050612457565b61174e6040518060400160405280601d81526020017f54686520426f737320257320686173206c6f7374207468652067616d65000000815250600a600001805461168290612cf9565b7f22eab1d320e837da74f0b4d9e86413d495558abaa6b7065ae3a698436619693c33838360010160405161178493929190613042565b60405180910390a16040517fba1013f2eeb88115830d7202c1879339e3f90ea456055440a8401a04e7ed406c906117c2903090600190600a90613042565b60405180910390a16117e5565b6005810154600c546117e19190613088565b600c555b600e546003820154101561195757600081600301819055506118456040518060400160405280601d81526020017f506c617965722025732068617320257320485020616e642025732041440000008152508260010180546113a190612cf9565b61188d6040518060400160405280602081526020017f536f6c6469657220416e7420257320686173206c6f7374207468652067616d6581525082600101805461168290612cf9565b6118d66040518060400160405280601c81526020017f54686520426f73732025732068617320576f6e207468652067616d6500000000815250600a600001805461168290612cf9565b7fba1013f2eeb88115830d7202c1879339e3f90ea456055440a8401a04e7ed406c33838360010160405161190c93929190613042565b60405180910390a16040517f22eab1d320e837da74f0b4d9e86413d495558abaa6b7065ae3a698436619693c9061194a903090600190600a90613042565b60405180910390a161196f565b600e5460038201546119699190613088565b60038201555b600c5460038201546040517f838ab28464562786a6c4ab2311964b82fa60bd9b14aa7e856af1f3f18d41a414926119ae92908252602082015260400190565b60405180910390a16119da6040518060600160405280602581526020016132e160259139600c5461249c565b6109b960405180606001604052806028815260200161334660289139826003015461249c565b66038d7ea4c6800034811115611a585760405162461bcd60e51b815260206004820152601860248201527f4e6f7420656e6f756768204d6f6e657920746f207061696400000000000000006044820152606401610769565b6000611a6360075490565b9050611a6f33826124e1565b6040518060c0016040528084815260200160088581548110611a9357611a9361309f565b90600052602060002090600602016001018054611aaf90612cf9565b80601f0160208091040260200160405190810160405280929190818152602001828054611adb90612cf9565b8015611b285780601f10611afd57610100808354040283529160200191611b28565b820191906000526020600020905b815481529060010190602001808311611b0b57829003601f168201915b5050505050815260200160088581548110611b4557611b4561309f565b90600052602060002090600602016002018054611b6190612cf9565b80601f0160208091040260200160405190810160405280929190818152602001828054611b8d90612cf9565b8015611bda5780601f10611baf57610100808354040283529160200191611bda565b820191906000526020600020905b815481529060010190602001808311611bbd57829003601f168201915b5050505050815260200160088581548110611bf757611bf761309f565b906000526020600020906006020160030154815260200160088581548110611c2157611c2161309f565b906000526020600020906006020160040154815260200160088581548110611c4b57611c4b61309f565b60009182526020808320600560069093020191909101549092528381526009825260409020825181558282015180519192611c8e926001850192909101906127e1565b5060408201518051611caa9160028401916020909101906127e1565b50606082015181600301556080820151816004015560a08201518160050155905050611cef6040518060600160405280602e815260200161336e602e913982856124fb565b336000908152600f60205260409020819055611d0f600780546001019055565b60408051338152602081018390529081018490527f4bc303fd457a97b4691b9af582ce71868a3d258638c8d4f8c60988a0f0bfb8cd9060600160405180910390a1505050565b610d9984848484604051602401611d6f94939291906130b5565b60408051601f198184030181529190526020810180516001600160e01b0316638d142cdd60e01b17905261253e565b80546001019055565b600081815260046020526040902080546001600160a01b0319166001600160a01b0384169081179091558190611ddc826109d8565b6001600160a01b03167f8c5be1e5ebec7d5bd14f71427d1e84f3dd0314c0f7b2291e5b200ac8c7c3b92560405160405180910390a45050565b6000818152600260205260408120546001600160a01b0316611e8e5760405162461bcd60e51b815260206004820152602c60248201527f4552433732313a206f70657261746f7220717565727920666f72206e6f6e657860448201526b34b9ba32b73a103a37b5b2b760a11b6064820152608401610769565b6000611e99836109d8565b9050806001600160a01b0316846001600160a01b03161480611ee057506001600160a01b0380821660009081526005602090815260408083209388168352929052205460ff165b80611f045750836001600160a01b0316611ef9846106f4565b6001600160a01b0316145b949350505050565b826001600160a01b0316611f1f826109d8565b6001600160a01b031614611f835760405162461bcd60e51b815260206004820152602560248201527f4552433732313a207472616e736665722066726f6d20696e636f72726563742060448201526437bbb732b960d91b6064820152608401610769565b6001600160a01b038216611fe55760405162461bcd60e51b8152602060048201526024808201527f4552433732313a207472616e7366657220746f20746865207a65726f206164646044820152637265737360e01b6064820152608401610769565b611ff0600082611da7565b6001600160a01b0383166000908152600360205260408120805460019290612019908490613088565b90915550506001600160a01b03821660009081526003602052604081208054600192906120479084906130ff565b909155505060008181526002602052604080822080546001600160a01b0319166001600160a01b0386811691821790925591518493918716917fddf252ad1be2c89b69c2b068fc378daa952ba7f163c4a11628f55a4df523b3ef91a4505050565b816001600160a01b0316836001600160a01b0316141561210a5760405162461bcd60e51b815260206004820152601960248201527f4552433732313a20617070726f766520746f2063616c6c6572000000000000006044820152606401610769565b6001600160a01b03838116600081815260056020908152604080832094871680845294825291829020805460ff191686151590811790915591519182527f17307eab39ab6107e8899845ad3d59bd9653f200f220920489ca2b5937696c31910160405180910390a3505050565b612182848484611f0c565b61218e8484848461255f565b610d995760405162461bcd60e51b815260040161076990613117565b6060816121ce5750506040805180820190915260018152600360fc1b602082015290565b8160005b81156121f857806121e281613169565b91506121f19050600a8361319a565b91506121d2565b60008167ffffffffffffffff81111561221357612213612afc565b6040519080825280601f01601f19166020018201604052801561223d576020820181803683370190505b5090505b8415611f0457612252600183613088565b915061225f600a866131ae565b61226a9060306130ff565b60f81b81838151811061227f5761227f61309f565b60200101906001600160f81b031916908160001a9053506122a1600a8661319a565b9450612241565b8051606090806122c8575050604080516020810190915260008152919050565b600060036122d78360026130ff565b6122e1919061319a565b6122ec9060046131c2565b905060006122fb8260206130ff565b67ffffffffffffffff81111561231357612313612afc565b6040519080825280601f01601f19166020018201604052801561233d576020820181803683370190505b5090506000604051806060016040528060408152602001613306604091399050600181016020830160005b868110156123c9576003818a01810151603f601282901c8116860151600c83901c8216870151600684901c831688015192909316870151600891821b60ff94851601821b92841692909201901b91160160e01b835260049092019101612368565b5060038606600181146123e357600281146123f457612400565b613d3d60f01b600119830152612400565b603d60f81b6000198301525b505050918152949350505050565b610d998484848460405160240161242894939291906131e1565b60408051601f198184030181529190526020810180516001600160e01b0316630d5cf17d60e41b17905261253e565b6109b9828260405160240161246d92919061321a565b60408051601f198184030181529190526020810180516001600160e01b0316634b5c427760e01b17905261253e565b6109b982826040516024016124b292919061323f565b60408051601f198184030181529190526020810180516001600160e01b03166309710a9d60e41b17905261253e565b6109b982826040518060200160405280600081525061266c565b61089f83838360405160240161251393929190613261565b60408051601f198184030181529190526020810180516001600160e01b031663969cdd0360e01b1790525b80516a636f6e736f6c652e6c6f67602083016000808483855afa5050505050565b60006001600160a01b0384163b1561266157604051630a85bd0160e11b81526001600160a01b0385169063150b7a02906125a3903390899088908890600401613286565b602060405180830381600087803b1580156125bd57600080fd5b505af19250505080156125ed575060408051601f3d908101601f191682019092526125ea918101906132c3565b60015b612647573d80801561261b576040519150601f19603f3d011682016040523d82523d6000602084013e612620565b606091505b50805161263f5760405162461bcd60e51b815260040161076990613117565b805181602001fd5b6001600160e01b031916630a85bd0160e11b149050611f04565b506001949350505050565b612676838361269f565b612683600084848461255f565b61089f5760405162461bcd60e51b815260040161076990613117565b6001600160a01b0382166126f55760405162461bcd60e51b815260206004820181905260248201527f4552433732313a206d696e7420746f20746865207a65726f20616464726573736044820152606401610769565b6000818152600260205260409020546001600160a01b03161561275a5760405162461bcd60e51b815260206004820152601c60248201527f4552433732313a20746f6b656e20616c7265616479206d696e746564000000006044820152606401610769565b6001600160a01b03821660009081526003602052604081208054600192906127839084906130ff565b909155505060008181526002602052604080822080546001600160a01b0319166001600160a01b03861690811790915590518392907fddf252ad1be2c89b69c2b068fc378daa952ba7f163c4a11628f55a4df523b3ef908290a45050565b8280546127ed90612cf9565b90600052602060002090601f01602090048101928261280f5760008555612855565b82601f1061282857805160ff1916838001178555612855565b82800160010185558215612855579182015b8281111561285557825182559160200191906001019061283a565b506113539291505b80821115611353576000815560010161285d565b6001600160e01b03198116811461288757600080fd5b50565b60006020828403121561289c57600080fd5b81356128a781612871565b9392505050565b60005b838110156128c95781810151838201526020016128b1565b83811115610d995750506000910152565b600081518084526128f28160208601602086016128ae565b601f01601f19169290920160200192915050565b602081526000825160a0602084015261292260c08401826128da565b90506020840151601f1984830301604085015261293f82826128da565b9150506040840151606084015260608401516080840152608084015160a08401528091505092915050565b6020815260006128a760208301846128da565b60006020828403121561298f57600080fd5b5035919050565b80356001600160a01b03811681146129ad57600080fd5b919050565b600080604083850312156129c557600080fd5b6129ce83612996565b946020939093013593505050565b6000806000606084860312156129f157600080fd5b6129fa84612996565b9250612a0860208501612996565b9150604084013590509250925092565b600060208284031215612a2a57600080fd5b6128a782612996565b86815260c060208201526000612a4c60c08301886128da565b8281036040840152612a5e81886128da565b60608401969096525050608081019290925260a0909101529392505050565b60008060408385031215612a9057600080fd5b612a9983612996565b915060208301358015158114612aae57600080fd5b809150509250929050565b60a081526000612acc60a08301886128da565b8281036020840152612ade81886128da565b60408401969096525050606081019290925260809091015292915050565b634e487b7160e01b600052604160045260246000fd5b60008060008060808587031215612b2857600080fd5b612b3185612996565b9350612b3f60208601612996565b925060408501359150606085013567ffffffffffffffff80821115612b6357600080fd5b818701915087601f830112612b7757600080fd5b813581811115612b8957612b89612afc565b604051601f8201601f19908116603f01168101908382118183101715612bb157612bb1612afc565b816040528281528a6020848701011115612bca57600080fd5b82602086016020830137600060208483010152809550505050505092959194509250565b805182526000602082015160c06020850152612c0d60c08501826128da565b905060408301518482036040860152612c2682826128da565b915050606083015160608501526080830151608085015260a083015160a08501528091505092915050565b6000602080830181845280855180835260408601915060408160051b870101925083870160005b82811015612ca657603f19888603018452612c94858351612bee565b94509285019290850190600101612c78565b5092979650505050505050565b6020815260006128a76020830184612bee565b60008060408385031215612cd957600080fd5b612ce283612996565b9150612cf060208401612996565b90509250929050565b600181811c90821680612d0d57607f821691505b60208210811415612d2e57634e487b7160e01b600052602260045260246000fd5b50919050565b60208082526031908201527f4552433732313a207472616e736665722063616c6c6572206973206e6f74206f6040820152701ddb995c881b9bdc88185c1c1c9bdd9959607a1b606082015260800190565b60008151612d978185602086016128ae565b9290920192915050565b693d913730b6b2911d101160b11b81528651600090612dc781600a850160208c016128ae565b6a01016969027232a10119d160ad1b600a918401918201528751612df2816015840160208c016128ae565b7f222c20226465736372697074696f6e223a20224120536f6c6469657220416e74601592909101918201527f20436f6d626174204e4654204d65746176657273652047616d65222c2022226960358201526e6d616765223a2022697066733a2f2f60881b60558201528651612e6e816064840160208b016128ae565b7f222c202261747472696275746573223a205b207b202274726169745f74797065606492909101918201527f223a20224865616c746820506f696e7473222c202276616c7565223a200000006084820152612f50612f40612f3a612efb612ef5612edb60a187018c612d85565b6d16101136b0bc2fbb30b63ab2911d60911b8152600e0190565b89612d85565b7f7d2c207b202274726169745f74797065223a202241747461636b2044616d616781526c032911610113b30b63ab2911d1609d1b6020820152602d0190565b86612d85565b637d205d7d60e01b815260040190565b9998505050505050505050565b7f646174613a6170706c69636174696f6e2f6a736f6e3b6261736536342c000000815260008251612f9581601d8501602087016128ae565b91909101601d0192915050565b8054600090600181811c9080831680612fbc57607f831692505b6020808410821415612fde57634e487b7160e01b600052602260045260246000fd5b83885260208801828015612ff9576001811461300a57613035565b60ff19871682528282019750613035565b60008981526020902060005b8781101561302f57815484820152908601908401613016565b83019850505b5050505050505092915050565b60018060a01b03841681528260208201526060604082015260006130696060830184612fa2565b95945050505050565b634e487b7160e01b600052601160045260246000fd5b60008282101561309a5761309a613072565b500390565b634e487b7160e01b600052603260045260246000fd5b6080815260006130c860808301876128da565b82810360208401526130da81876128da565b905084604084015282810360608401526130f481856128da565b979650505050505050565b6000821982111561311257613112613072565b500190565b60208082526032908201527f4552433732313a207472616e7366657220746f206e6f6e20455243373231526560408201527131b2b4bb32b91034b6b83632b6b2b73a32b960711b606082015260800190565b600060001982141561317d5761317d613072565b5060010190565b634e487b7160e01b600052601260045260246000fd5b6000826131a9576131a9613184565b500490565b6000826131bd576131bd613184565b500690565b60008160001904831182151516156131dc576131dc613072565b500290565b6080815260006131f460808301876128da565b828103602084015261320681876128da565b604084019590955250506060015292915050565b60408152600061322d60408301856128da565b828103602084015261306981856128da565b60408152600061325260408301856128da565b90508260208301529392505050565b60608152600061327460608301866128da565b60208301949094525060400152919050565b6001600160a01b03858116825284166020820152604081018390526080606082018190526000906132b9908301846128da565b9695505050505050565b6000602082840312156132d557600080fd5b81516128a78161287156fe506c617965722061747461636b656420626f73732e204e657720626f73732068703a2025734142434445464748494a4b4c4d4e4f505152535455565758595a6162636465666768696a6b6c6d6e6f707172737475767778797a303132333435363738392b2f426f73732061747461636b656420706c617965722e204e657720706c617965722068703a2025730a4d696e746564204e465420772f20746f6b656e496420257320616e6420636861726163746572496e6465782025730a506c6179657220772f206368617261637465722025732061626f757420746f2061747461636b2e2048617320257320485020616e64202573204144a26469706673582212201d2363aa6e6d7db213f1998d380067dbd00fa01926f49a40483f67919cdf9a9964736f6c63430008090033446f6e6520696e697469616c697a696e6720257320772f2048502025732c20696d67202573446f6e6520696e697469616c697a696e6720626f737320257320772f2048502025732c20696d67202573",
  "linkReferences": {},
  "deployedLinkReferences": {}
}