{
  "_format": "hh-sol-artifact-1",
  "contractName": "NFTMarketplace",
  "sourceName": "contracts/NFTMarketplace.sol",
  "abi": [
    {
      "inputs": [],
      "stateMutability": "nonpayable",
      "type": "constructor"
    },
    {
      "anonymous": false,
      "inputs": [
        {
          "indexed": true,
          "internalType": "address",
          "name": "owner",
          "type": "address"
        },
        {
          "indexed": true,
          "internalType": "address",
          "name": "approved",
          "type": "address"
        },
        {
          "indexed": true,
          "internalType": "uint256",
          "name": "tokenId",
          "type": "uint256"
        }
      ],
      "name": "Approval",
      "type": "event"
    },
    {
      "anonymous": false,
      "inputs": [
        {
          "indexed": true,
          "internalType": "address",
          "name": "owner",
          "type": "address"
        },
        {
          "indexed": true,
          "internalType": "address",
          "name": "operator",
          "type": "address"
        },
        {
          "indexed": false,
          "internalType": "bool",
          "name": "approved",
          "type": "bool"
        }
      ],
      "name": "ApprovalForAll",
      "type": "event"
    },
    {
      "anonymous": false,
      "inputs": [
        {
          "indexed": true,
          "internalType": "uint256",
          "name": "tokenId",
          "type": "uint256"
        },
        {
          "indexed": false,
          "internalType": "address",
          "name": "seller",
          "type": "address"
        },
        {
          "indexed": false,
          "internalType": "address",
          "name": "owner",
          "type": "address"
        },
        {
          "indexed": false,
          "internalType": "uint256",
          "name": "price",
          "type": "uint256"
        },
        {
          "indexed": false,
          "internalType": "bool",
          "name": "sold",
          "type": "bool"
        }
      ],
      "name": "MarketItemCreated",
      "type": "event"
    },
    {
      "anonymous": false,
      "inputs": [
        {
          "indexed": true,
          "internalType": "address",
          "name": "from",
          "type": "address"
        },
        {
          "indexed": true,
          "internalType": "address",
          "name": "to",
          "type": "address"
        },
        {
          "indexed": true,
          "internalType": "uint256",
          "name": "tokenId",
          "type": "uint256"
        }
      ],
      "name": "Transfer",
      "type": "event"
    },
    {
      "inputs": [
        {
          "internalType": "address",
          "name": "to",
          "type": "address"
        },
        {
          "internalType": "uint256",
          "name": "tokenId",
          "type": "uint256"
        }
      ],
      "name": "approve",
      "outputs": [],
      "stateMutability": "nonpayable",
      "type": "function"
    },
    {
      "inputs": [
        {
          "internalType": "address",
          "name": "owner",
          "type": "address"
        }
      ],
      "name": "balanceOf",
      "outputs": [
        {
          "internalType": "uint256",
          "name": "",
          "type": "uint256"
        }
      ],
      "stateMutability": "view",
      "type": "function"
    },
    {
      "inputs": [
        {
          "internalType": "uint256",
          "name": "tokenId",
          "type": "uint256"
        }
      ],
      "name": "createMarketSale",
      "outputs": [],
      "stateMutability": "payable",
      "type": "function"
    },
    {
      "inputs": [
        {
          "internalType": "string",
          "name": "tokenURI",
          "type": "string"
        },
        {
          "internalType": "uint256",
          "name": "price",
          "type": "uint256"
        }
      ],
      "name": "createToken",
      "outputs": [
        {
          "internalType": "uint256",
          "name": "",
          "type": "uint256"
        }
      ],
      "stateMutability": "payable",
      "type": "function"
    },
    {
      "inputs": [],
      "name": "fetchItemsListed",
      "outputs": [
        {
          "components": [
            {
              "internalType": "uint256",
              "name": "tokenId",
              "type": "uint256"
            },
            {
              "internalType": "address payable",
              "name": "seller",
              "type": "address"
            },
            {
              "internalType": "address payable",
              "name": "owner",
              "type": "address"
            },
            {
              "internalType": "uint256",
              "name": "price",
              "type": "uint256"
            },
            {
              "internalType": "bool",
              "name": "sold",
              "type": "bool"
            }
          ],
          "internalType": "struct NFTMarketplace.MarketItem[]",
          "name": "",
          "type": "tuple[]"
        }
      ],
      "stateMutability": "view",
      "type": "function"
    },
    {
      "inputs": [],
      "name": "fetchMarketItems",
      "outputs": [
        {
          "components": [
            {
              "internalType": "uint256",
              "name": "tokenId",
              "type": "uint256"
            },
            {
              "internalType": "address payable",
              "name": "seller",
              "type": "address"
            },
            {
              "internalType": "address payable",
              "name": "owner",
              "type": "address"
            },
            {
              "internalType": "uint256",
              "name": "price",
              "type": "uint256"
            },
            {
              "internalType": "bool",
              "name": "sold",
              "type": "bool"
            }
          ],
          "internalType": "struct NFTMarketplace.MarketItem[]",
          "name": "",
          "type": "tuple[]"
        }
      ],
      "stateMutability": "view",
      "type": "function"
    },
    {
      "inputs": [],
      "name": "fetchMyNFTs",
      "outputs": [
        {
          "components": [
            {
              "internalType": "uint256",
              "name": "tokenId",
              "type": "uint256"
            },
            {
              "internalType": "address payable",
              "name": "seller",
              "type": "address"
            },
            {
              "internalType": "address payable",
              "name": "owner",
              "type": "address"
            },
            {
              "internalType": "uint256",
              "name": "price",
              "type": "uint256"
            },
            {
              "internalType": "bool",
              "name": "sold",
              "type": "bool"
            }
          ],
          "internalType": "struct NFTMarketplace.MarketItem[]",
          "name": "",
          "type": "tuple[]"
        }
      ],
      "stateMutability": "view",
      "type": "function"
    },
    {
      "inputs": [
        {
          "internalType": "uint256",
          "name": "tokenId",
          "type": "uint256"
        }
      ],
      "name": "getApproved",
      "outputs": [
        {
          "internalType": "address",
          "name": "",
          "type": "address"
        }
      ],
      "stateMutability": "view",
      "type": "function"
    },
    {
      "inputs": [],
      "name": "getListingPrice",
      "outputs": [
        {
          "internalType": "uint256",
          "name": "",
          "type": "uint256"
        }
      ],
      "stateMutability": "view",
      "type": "function"
    },
    {
      "inputs": [
        {
          "internalType": "address",
          "name": "owner",
          "type": "address"
        },
        {
          "internalType": "address",
          "name": "operator",
          "type": "address"
        }
      ],
      "name": "isApprovedForAll",
      "outputs": [
        {
          "internalType": "bool",
          "name": "",
          "type": "bool"
        }
      ],
      "stateMutability": "view",
      "type": "function"
    },
    {
      "inputs": [],
      "name": "name",
      "outputs": [
        {
          "internalType": "string",
          "name": "",
          "type": "string"
        }
      ],
      "stateMutability": "view",
      "type": "function"
    },
    {
      "inputs": [
        {
          "internalType": "uint256",
          "name": "tokenId",
          "type": "uint256"
        }
      ],
      "name": "ownerOf",
      "outputs": [
        {
          "internalType": "address",
          "name": "",
          "type": "address"
        }
      ],
      "stateMutability": "view",
      "type": "function"
    },
    {
      "inputs": [
        {
          "internalType": "uint256",
          "name": "tokenId",
          "type": "uint256"
        },
        {
          "internalType": "uint256",
          "name": "price",
          "type": "uint256"
        }
      ],
      "name": "resellToken",
      "outputs": [],
      "stateMutability": "payable",
      "type": "function"
    },
    {
      "inputs": [
        {
          "internalType": "address",
          "name": "from",
          "type": "address"
        },
        {
          "internalType": "address",
          "name": "to",
          "type": "address"
        },
        {
          "internalType": "uint256",
          "name": "tokenId",
          "type": "uint256"
        }
      ],
      "name": "safeTransferFrom",
      "outputs": [],
      "stateMutability": "nonpayable",
      "type": "function"
    },
    {
      "inputs": [
        {
          "internalType": "address",
          "name": "from",
          "type": "address"
        },
        {
          "internalType": "address",
          "name": "to",
          "type": "address"
        },
        {
          "internalType": "uint256",
          "name": "tokenId",
          "type": "uint256"
        },
        {
          "internalType": "bytes",
          "name": "_data",
          "type": "bytes"
        }
      ],
      "name": "safeTransferFrom",
      "outputs": [],
      "stateMutability": "nonpayable",
      "type": "function"
    },
    {
      "inputs": [
        {
          "internalType": "address",
          "name": "operator",
          "type": "address"
        },
        {
          "internalType": "bool",
          "name": "approved",
          "type": "bool"
        }
      ],
      "name": "setApprovalForAll",
      "outputs": [],
      "stateMutability": "nonpayable",
      "type": "function"
    },
    {
      "inputs": [
        {
          "internalType": "bytes4",
          "name": "interfaceId",
          "type": "bytes4"
        }
      ],
      "name": "supportsInterface",
      "outputs": [
        {
          "internalType": "bool",
          "name": "",
          "type": "bool"
        }
      ],
      "stateMutability": "view",
      "type": "function"
    },
    {
      "inputs": [],
      "name": "symbol",
      "outputs": [
        {
          "internalType": "string",
          "name": "",
          "type": "string"
        }
      ],
      "stateMutability": "view",
      "type": "function"
    },
    {
      "inputs": [
        {
          "internalType": "uint256",
          "name": "tokenId",
          "type": "uint256"
        }
      ],
      "name": "tokenURI",
      "outputs": [
        {
          "internalType": "string",
          "name": "",
          "type": "string"
        }
      ],
      "stateMutability": "view",
      "type": "function"
    },
    {
      "inputs": [
        {
          "internalType": "address",
          "name": "from",
          "type": "address"
        },
        {
          "internalType": "address",
          "name": "to",
          "type": "address"
        },
        {
          "internalType": "uint256",
          "name": "tokenId",
          "type": "uint256"
        }
      ],
      "name": "transferFrom",
      "outputs": [],
      "stateMutability": "nonpayable",
      "type": "function"
    },
    {
      "inputs": [
        {
          "internalType": "uint256",
          "name": "_listingPrice",
          "type": "uint256"
        }
      ],
      "name": "updateListingPrice",
      "outputs": [],
      "stateMutability": "payable",
      "type": "function"
    },
    {
      "inputs": [],
      "name": "withdraw",
      "outputs": [],
      "stateMutability": "nonpayable",
      "type": "function"
    }
  ],
  "bytecode": "0x608060405266038d7ea4c680006009553480156200001c57600080fd5b50604080518082018252601081526f4d657461766572736520546f6b656e7360801b6020808301918252835180850190945260048452631351551560e21b9084015281519192916200007191600091620000a2565b50805162000087906001906020840190620000a2565b5050600a80546001600160a01b031916331790555062000185565b828054620000b09062000148565b90600052602060002090601f016020900481019282620000d457600085556200011f565b82601f10620000ef57805160ff19168380011785556200011f565b828001600101855582156200011f579182015b828111156200011f57825182559160200191906001019062000102565b506200012d92915062000131565b5090565b5b808211156200012d576000815560010162000132565b600181811c908216806200015d57607f821691505b602082108114156200017f57634e487b7160e01b600052602260045260246000fd5b50919050565b61242480620001956000396000f3fe6080604052600436106101355760003560e01c80636352211e116100ab578063ae677aa31161006f578063ae677aa314610333578063b88d4fde14610346578063be9af53614610366578063c87b56dd14610379578063e219fc7514610399578063e985e9c5146103ac57600080fd5b80636352211e146102ab57806370a08231146102cb57806372b3b620146102eb57806395d89b41146102fe578063a22cb4651461031357600080fd5b806312e85585116100fd57806312e855851461020d578063202e37401461022c57806323b872dd146102415780633ccfd60b1461026157806342842e0e1461027657806345f8fa801461029657600080fd5b806301ffc9a71461013a57806306fdde031461016f578063081812fc14610191578063095ea7b3146101c95780630f08efe0146101eb575b600080fd5b34801561014657600080fd5b5061015a610155366004611de3565b6103f5565b60405190151581526020015b60405180910390f35b34801561017b57600080fd5b50610184610447565b6040516101669190611e58565b34801561019d57600080fd5b506101b16101ac366004611e6b565b6104d9565b6040516001600160a01b039091168152602001610166565b3480156101d557600080fd5b506101e96101e4366004611ea0565b610566565b005b3480156101f757600080fd5b5061020061067c565b6040516101669190611eca565b34801561021957600080fd5b506009545b604051908152602001610166565b34801561023857600080fd5b50610200610814565b34801561024d57600080fd5b506101e961025c366004611f46565b6109ea565b34801561026d57600080fd5b506101e9610a1b565b34801561028257600080fd5b506101e9610291366004611f46565b610b03565b3480156102a257600080fd5b50610200610b1e565b3480156102b757600080fd5b506101b16102c6366004611e6b565b610cf4565b3480156102d757600080fd5b5061021e6102e6366004611f82565b610d6b565b61021e6102f9366004612029565b610df2565b34801561030a57600080fd5b50610184610e34565b34801561031f57600080fd5b506101e961032e366004612082565b610e43565b6101e9610341366004611e6b565b610e4e565b34801561035257600080fd5b506101e96103613660046120be565b610ec6565b6101e9610374366004611e6b565b610efe565b34801561038557600080fd5b50610184610394366004611e6b565b611063565b6101e96103a736600461213a565b6111da565b3480156103b857600080fd5b5061015a6103c736600461215c565b6001600160a01b03918216600090815260056020908152604080832093909416825291909152205460ff1690565b60006001600160e01b031982166380ac58cd60e01b148061042657506001600160e01b03198216635b5e139f60e01b145b8061044157506301ffc9a760e01b6001600160e01b03198316145b92915050565b6060600080546104569061218f565b80601f01602080910402602001604051908101604052809291908181526020018280546104829061218f565b80156104cf5780601f106104a4576101008083540402835291602001916104cf565b820191906000526020600020905b8154815290600101906020018083116104b257829003601f168201915b5050505050905090565b60006104e4826112d2565b61054a5760405162461bcd60e51b815260206004820152602c60248201527f4552433732313a20617070726f76656420717565727920666f72206e6f6e657860448201526b34b9ba32b73a103a37b5b2b760a11b60648201526084015b60405180910390fd5b506000908152600460205260409020546001600160a01b031690565b600061057182610cf4565b9050806001600160a01b0316836001600160a01b031614156105df5760405162461bcd60e51b815260206004820152602160248201527f4552433732313a20617070726f76616c20746f2063757272656e74206f776e656044820152603960f91b6064820152608401610541565b336001600160a01b03821614806105fb57506105fb81336103c7565b61066d5760405162461bcd60e51b815260206004820152603860248201527f4552433732313a20617070726f76652063616c6c6572206973206e6f74206f7760448201527f6e6572206e6f7220617070726f76656420666f7220616c6c00000000000000006064820152608401610541565b61067783836112ef565b505050565b6060600061068960075490565b9050600061069660085490565b6007546106a391906121e0565b90506000808267ffffffffffffffff8111156106c1576106c1611f9d565b60405190808252806020026020018201604052801561071a57816020015b6040805160a0810182526000808252602080830182905292820181905260608201819052608082015282526000199092019101816106df5790505b50905060005b8481101561080b5730600b60006107388460016121f7565b81526020810191909152604001600020600201546001600160a01b031614156107f95760006107688260016121f7565b6000818152600b6020908152604091829020825160a0810184528154815260018201546001600160a01b039081169382019390935260028201549092169282019290925260038201546060820152600482015460ff1615156080820152855192935090918590879081106107de576107de61220f565b60209081029190910101526107f46001866121f7565b945050505b8061080381612225565b915050610720565b50949350505050565b6060600061082160075490565b905060008060005b838110156108845733600b60006108418460016121f7565b81526020810191909152604001600020600201546001600160a01b031614156108725761086f6001846121f7565b92505b8061087c81612225565b915050610829565b5060008267ffffffffffffffff8111156108a0576108a0611f9d565b6040519080825280602002602001820160405280156108f957816020015b6040805160a0810182526000808252602080830182905292820181905260608201819052608082015282526000199092019101816108be5790505b50905060005b8481101561080b5733600b60006109178460016121f7565b81526020810191909152604001600020600201546001600160a01b031614156109d85760006109478260016121f7565b6000818152600b6020908152604091829020825160a0810184528154815260018201546001600160a01b039081169382019390935260028201549092169282019290925260038201546060820152600482015460ff1615156080820152855192935090918590879081106109bd576109bd61220f565b60209081029190910101526109d36001866121f7565b945050505b806109e281612225565b9150506108ff565b6109f4338261135d565b610a105760405162461bcd60e51b815260040161054190612240565b610677838383611446565b600a546001600160a01b03163314610a615760405162461bcd60e51b81526020600482015260096024820152682737ba1037bbb732b960b91b6044820152606401610541565b600a5460405147916000916001600160a01b039091169083908381818185875af1925050503d8060008114610ab2576040519150601f19603f3d011682016040523d82523d6000602084013e610ab7565b606091505b5050905080610aff5760405162461bcd60e51b81526020600482015260146024820152732330b4b632b2103a379039b2b7321022ba3432b960611b6044820152606401610541565b5050565b61067783838360405180602001604052806000815250610ec6565b60606000610b2b60075490565b905060008060005b83811015610b8e5733600b6000610b4b8460016121f7565b81526020810191909152604001600020600101546001600160a01b03161415610b7c57610b796001846121f7565b92505b80610b8681612225565b915050610b33565b5060008267ffffffffffffffff811115610baa57610baa611f9d565b604051908082528060200260200182016040528015610c0357816020015b6040805160a081018252600080825260208083018290529282018190526060820181905260808201528252600019909201910181610bc85790505b50905060005b8481101561080b5733600b6000610c218460016121f7565b81526020810191909152604001600020600101546001600160a01b03161415610ce2576000610c518260016121f7565b6000818152600b6020908152604091829020825160a0810184528154815260018201546001600160a01b039081169382019390935260028201549092169282019290925260038201546060820152600482015460ff161515608082015285519293509091859087908110610cc757610cc761220f565b6020908102919091010152610cdd6001866121f7565b945050505b80610cec81612225565b915050610c09565b6000818152600260205260408120546001600160a01b0316806104415760405162461bcd60e51b815260206004820152602960248201527f4552433732313a206f776e657220717565727920666f72206e6f6e657869737460448201526832b73a103a37b5b2b760b91b6064820152608401610541565b60006001600160a01b038216610dd65760405162461bcd60e51b815260206004820152602a60248201527f4552433732313a2062616c616e636520717565727920666f7220746865207a65604482015269726f206164647265737360b01b6064820152608401610541565b506001600160a01b031660009081526003602052604090205490565b6000610e02600780546001019055565b6000610e0d60075490565b9050610e1933826115e2565b610e238185611715565b610e2d81846117a0565b9392505050565b6060600180546104569061218f565b610aff3383836118f6565b600a546001600160a01b03163314610ec15760405162461bcd60e51b815260206004820152603060248201527f4f6e6c79206d61726b6574706c616365206f776e65722063616e20757064617460448201526f32903634b9ba34b73390383934b1b29760811b6064820152608401610541565b600955565b610ed0338361135d565b610eec5760405162461bcd60e51b815260040161054190612240565b610ef8848484846119c5565b50505050565b6000818152600b6020526040902060038101546001909101546001600160a01b0316348214610f97576040805162461bcd60e51b81526020600482015260248101919091527f506c65617365207375626d6974207468652061736b696e67207072696365206960448201527f6e206f7264657220746f20636f6d706c657465207468652070757263686173656064820152608401610541565b6000838152600b602052604090206002810180546001600160a01b0319908116331790915560048201805460ff1916600190811790915590910180549091169055610fe6600880546001019055565b610ff1303385611446565b600a546009546040516001600160a01b039092169181156108fc0291906000818181858888f1935050505015801561102d573d6000803e3d6000fd5b506040516001600160a01b038216903480156108fc02916000818181858888f19350505050158015610ef8573d6000803e3d6000fd5b606061106e826112d2565b6110d45760405162461bcd60e51b815260206004820152603160248201527f45524337323155524953746f726167653a2055524920717565727920666f72206044820152703737b732bc34b9ba32b73a103a37b5b2b760791b6064820152608401610541565b600082815260066020526040812080546110ed9061218f565b80601f01602080910402602001604051908101604052809291908181526020018280546111199061218f565b80156111665780601f1061113b57610100808354040283529160200191611166565b820191906000526020600020905b81548152906001019060200180831161114957829003601f168201915b50505050509050600061118460408051602081019091526000815290565b9050805160001415611197575092915050565b8151156111c95780826040516020016111b1929190612291565b60405160208183030381529060405292505050919050565b6111d2846119f8565b949350505050565b6000828152600b60205260409020600201546001600160a01b031633146112565760405162461bcd60e51b815260206004820152602a60248201527f4f6e6c79206974656d206f776e65722063616e20706572666f726d20746869736044820152691037b832b930ba34b7b760b11b6064820152608401610541565b60095434146112775760405162461bcd60e51b8152600401610541906122c0565b6000828152600b6020526040902060048101805460ff19169055600381018290556001810180546001600160a01b0319908116331790915560029091018054909116301790556112c76008611acf565b610aff333084611446565b6000908152600260205260409020546001600160a01b0316151590565b600081815260046020526040902080546001600160a01b0319166001600160a01b038416908117909155819061132482610cf4565b6001600160a01b03167f8c5be1e5ebec7d5bd14f71427d1e84f3dd0314c0f7b2291e5b200ac8c7c3b92560405160405180910390a45050565b6000611368826112d2565b6113c95760405162461bcd60e51b815260206004820152602c60248201527f4552433732313a206f70657261746f7220717565727920666f72206e6f6e657860448201526b34b9ba32b73a103a37b5b2b760a11b6064820152608401610541565b60006113d483610cf4565b9050806001600160a01b0316846001600160a01b0316148061141b57506001600160a01b0380821660009081526005602090815260408083209388168352929052205460ff165b806111d25750836001600160a01b0316611434846104d9565b6001600160a01b031614949350505050565b826001600160a01b031661145982610cf4565b6001600160a01b0316146114bd5760405162461bcd60e51b815260206004820152602560248201527f4552433732313a207472616e736665722066726f6d20696e636f72726563742060448201526437bbb732b960d91b6064820152608401610541565b6001600160a01b03821661151f5760405162461bcd60e51b8152602060048201526024808201527f4552433732313a207472616e7366657220746f20746865207a65726f206164646044820152637265737360e01b6064820152608401610541565b61152a6000826112ef565b6001600160a01b03831660009081526003602052604081208054600192906115539084906121e0565b90915550506001600160a01b03821660009081526003602052604081208054600192906115819084906121f7565b909155505060008181526002602052604080822080546001600160a01b0319166001600160a01b0386811691821790925591518493918716917fddf252ad1be2c89b69c2b068fc378daa952ba7f163c4a11628f55a4df523b3ef91a4505050565b6001600160a01b0382166116385760405162461bcd60e51b815260206004820181905260248201527f4552433732313a206d696e7420746f20746865207a65726f20616464726573736044820152606401610541565b611641816112d2565b1561168e5760405162461bcd60e51b815260206004820152601c60248201527f4552433732313a20746f6b656e20616c7265616479206d696e746564000000006044820152606401610541565b6001600160a01b03821660009081526003602052604081208054600192906116b79084906121f7565b909155505060008181526002602052604080822080546001600160a01b0319166001600160a01b03861690811790915590518392907fddf252ad1be2c89b69c2b068fc378daa952ba7f163c4a11628f55a4df523b3ef908290a45050565b61171e826112d2565b6117815760405162461bcd60e51b815260206004820152602e60248201527f45524337323155524953746f726167653a2055524920736574206f66206e6f6e60448201526d32bc34b9ba32b73a103a37b5b2b760911b6064820152608401610541565b6000828152600660209081526040909120825161067792840190611d31565b600081116117f05760405162461bcd60e51b815260206004820152601c60248201527f5072696365206d757374206265206174206c65617374203120776569000000006044820152606401610541565b60095434146118115760405162461bcd60e51b8152600401610541906122c0565b6040805160a08101825283815233602080830182815230848601818152606086018881526000608088018181528b8252600b909652979097209551865591516001860180546001600160a01b03199081166001600160a01b0393841617909155925160028701805490941691161790915593516003840155516004909201805460ff1916921515929092179091556118a99184611446565b604080513381523060208201529081018290526000606082015282907fb640004f1d14576d0c209e240cad0410e0d8c0c33a09375861fbadae2588a98d9060800160405180910390a25050565b816001600160a01b0316836001600160a01b031614156119585760405162461bcd60e51b815260206004820152601960248201527f4552433732313a20617070726f766520746f2063616c6c6572000000000000006044820152606401610541565b6001600160a01b03838116600081815260056020908152604080832094871680845294825291829020805460ff191686151590811790915591519182527f17307eab39ab6107e8899845ad3d59bd9653f200f220920489ca2b5937696c31910160405180910390a3505050565b6119d0848484611446565b6119dc84848484611b26565b610ef85760405162461bcd60e51b815260040161054190612304565b6060611a03826112d2565b611a675760405162461bcd60e51b815260206004820152602f60248201527f4552433732314d657461646174613a2055524920717565727920666f72206e6f60448201526e3732bc34b9ba32b73a103a37b5b2b760891b6064820152608401610541565b6000611a7e60408051602081019091526000815290565b90506000815111611a9e5760405180602001604052806000815250610e2d565b80611aa884611c33565b604051602001611ab9929190612291565b6040516020818303038152906040529392505050565b805480611b1e5760405162461bcd60e51b815260206004820152601b60248201527f436f756e7465723a2064656372656d656e74206f766572666c6f7700000000006044820152606401610541565b600019019055565b60006001600160a01b0384163b15611c2857604051630a85bd0160e11b81526001600160a01b0385169063150b7a0290611b6a903390899088908890600401612356565b602060405180830381600087803b158015611b8457600080fd5b505af1925050508015611bb4575060408051601f3d908101601f19168201909252611bb191810190612393565b60015b611c0e573d808015611be2576040519150601f19603f3d011682016040523d82523d6000602084013e611be7565b606091505b508051611c065760405162461bcd60e51b815260040161054190612304565b805181602001fd5b6001600160e01b031916630a85bd0160e11b1490506111d2565b506001949350505050565b606081611c575750506040805180820190915260018152600360fc1b602082015290565b8160005b8115611c815780611c6b81612225565b9150611c7a9050600a836123c6565b9150611c5b565b60008167ffffffffffffffff811115611c9c57611c9c611f9d565b6040519080825280601f01601f191660200182016040528015611cc6576020820181803683370190505b5090505b84156111d257611cdb6001836121e0565b9150611ce8600a866123da565b611cf39060306121f7565b60f81b818381518110611d0857611d0861220f565b60200101906001600160f81b031916908160001a905350611d2a600a866123c6565b9450611cca565b828054611d3d9061218f565b90600052602060002090601f016020900481019282611d5f5760008555611da5565b82601f10611d7857805160ff1916838001178555611da5565b82800160010185558215611da5579182015b82811115611da5578251825591602001919060010190611d8a565b50611db1929150611db5565b5090565b5b80821115611db15760008155600101611db6565b6001600160e01b031981168114611de057600080fd5b50565b600060208284031215611df557600080fd5b8135610e2d81611dca565b60005b83811015611e1b578181015183820152602001611e03565b83811115610ef85750506000910152565b60008151808452611e44816020860160208601611e00565b601f01601f19169290920160200192915050565b602081526000610e2d6020830184611e2c565b600060208284031215611e7d57600080fd5b5035919050565b80356001600160a01b0381168114611e9b57600080fd5b919050565b60008060408385031215611eb357600080fd5b611ebc83611e84565b946020939093013593505050565b602080825282518282018190526000919060409081850190868401855b82811015611f3957815180518552868101516001600160a01b03908116888701528682015116868601526060808201519086015260809081015115159085015260a09093019290850190600101611ee7565b5091979650505050505050565b600080600060608486031215611f5b57600080fd5b611f6484611e84565b9250611f7260208501611e84565b9150604084013590509250925092565b600060208284031215611f9457600080fd5b610e2d82611e84565b634e487b7160e01b600052604160045260246000fd5b600067ffffffffffffffff80841115611fce57611fce611f9d565b604051601f8501601f19908116603f01168101908282118183101715611ff657611ff6611f9d565b8160405280935085815286868601111561200f57600080fd5b858560208301376000602087830101525050509392505050565b6000806040838503121561203c57600080fd5b823567ffffffffffffffff81111561205357600080fd5b8301601f8101851361206457600080fd5b61207385823560208401611fb3565b95602094909401359450505050565b6000806040838503121561209557600080fd5b61209e83611e84565b9150602083013580151581146120b357600080fd5b809150509250929050565b600080600080608085870312156120d457600080fd5b6120dd85611e84565b93506120eb60208601611e84565b925060408501359150606085013567ffffffffffffffff81111561210e57600080fd5b8501601f8101871361211f57600080fd5b61212e87823560208401611fb3565b91505092959194509250565b6000806040838503121561214d57600080fd5b50508035926020909101359150565b6000806040838503121561216f57600080fd5b61217883611e84565b915061218660208401611e84565b90509250929050565b600181811c908216806121a357607f821691505b602082108114156121c457634e487b7160e01b600052602260045260246000fd5b50919050565b634e487b7160e01b600052601160045260246000fd5b6000828210156121f2576121f26121ca565b500390565b6000821982111561220a5761220a6121ca565b500190565b634e487b7160e01b600052603260045260246000fd5b6000600019821415612239576122396121ca565b5060010190565b60208082526031908201527f4552433732313a207472616e736665722063616c6c6572206973206e6f74206f6040820152701ddb995c881b9bdc88185c1c1c9bdd9959607a1b606082015260800190565b600083516122a3818460208801611e00565b8351908301906122b7818360208801611e00565b01949350505050565b60208082526024908201527f5072696365206d75737420626520657175616c20746f206c697374696e6720706040820152637269636560e01b606082015260800190565b60208082526032908201527f4552433732313a207472616e7366657220746f206e6f6e20455243373231526560408201527131b2b4bb32b91034b6b83632b6b2b73a32b960711b606082015260800190565b6001600160a01b038581168252841660208201526040810183905260806060820181905260009061238990830184611e2c565b9695505050505050565b6000602082840312156123a557600080fd5b8151610e2d81611dca565b634e487b7160e01b600052601260045260246000fd5b6000826123d5576123d56123b0565b500490565b6000826123e9576123e96123b0565b50069056fea2646970667358221220a21114df30b7c62e03eefbaeb563f6d3ea0d1d74fb49c2cc8e1f1f461112978164736f6c63430008090033",
  "linkReferences": {},
  "deployedLinkReferences": {}
}